{
  "contractName": "EasySwap",
  "abi": [
    {
      "inputs": [],
      "name": "DAI",
      "outputs": [
        {
          "internalType": "address",
          "name": "",
          "type": "address"
        }
      ],
      "stateMutability": "view",
      "type": "function"
    },
    {
      "inputs": [],
      "name": "WETH9",
      "outputs": [
        {
          "internalType": "address",
          "name": "",
          "type": "address"
        }
      ],
      "stateMutability": "view",
      "type": "function"
    },
    {
      "inputs": [],
      "name": "swapRouter",
      "outputs": [
        {
          "internalType": "address",
          "name": "",
          "type": "address"
        }
      ],
      "stateMutability": "view",
      "type": "function"
    },
    {
      "inputs": [],
      "name": "depositWithETH",
      "outputs": [],
      "stateMutability": "payable",
      "type": "function"
    },
    {
      "inputs": [
        {
          "internalType": "uint256",
          "name": "_amountIn",
          "type": "uint256"
        }
      ],
      "name": "deposit",
      "outputs": [],
      "stateMutability": "nonpayable",
      "type": "function"
    },
    {
      "inputs": [
        {
          "internalType": "uint256",
          "name": "_amount",
          "type": "uint256"
        }
      ],
      "name": "withdraw",
      "outputs": [],
      "stateMutability": "nonpayable",
      "type": "function"
    }
  ],
  "bytecode": "0x6080604052731b02da8cb0d097eb8d57a175b88c7d8b479975066000806101000a81548173ffffffffffffffffffffffffffffffffffffffff021916908373ffffffffffffffffffffffffffffffffffffffff16021790555034801561006457600080fd5b50610e20806100746000396000f3fe6080604052600436106100555760003560e01c80631166dab61461005a5780632e1a7d4d146100645780634aa4a4fc1461009f578063b6b55f25146100e0578063c31c9c071461011b578063e0bab4c41461015c575b600080fd5b61006261019d565b005b34801561007057600080fd5b5061009d6004803603602081101561008757600080fd5b810190808035906020019092919050505061045d565b005b3480156100ab57600080fd5b506100b461048f565b604051808273ffffffffffffffffffffffffffffffffffffffff16815260200191505060405180910390f35b3480156100ec57600080fd5b506101196004803603602081101561010357600080fd5b81019080803590602001909291905050506104a7565b005b34801561012757600080fd5b506101306107df565b604051808273ffffffffffffffffffffffffffffffffffffffff16815260200191505060405180910390f35b34801561016857600080fd5b50610171610803565b604051808273ffffffffffffffffffffffffffffffffffffffff16815260200191505060405180910390f35b6060600267ffffffffffffffff811180156101b757600080fd5b506040519080825280602002602001820160405280156101e65781602001602082028036833780820191505090505b50905073c778417e063141139fce010982780140aa0cd5ab8160008151811061020b57fe5b602002602001019073ffffffffffffffffffffffffffffffffffffffff16908173ffffffffffffffffffffffffffffffffffffffff168152505073c2118d4d90b274016cb7a54c03ef52e6c537d9578160018151811061026757fe5b602002602001019073ffffffffffffffffffffffffffffffffffffffff16908173ffffffffffffffffffffffffffffffffffffffff168152505060008054906101000a900473ffffffffffffffffffffffffffffffffffffffff1673ffffffffffffffffffffffffffffffffffffffff16637ff36ab560008330426040518563ffffffff1660e01b815260040180858152602001806020018473ffffffffffffffffffffffffffffffffffffffff168152602001838152602001828103825285818151815260200191508051906020019060200280838360005b8381101561035c578082015181840152602081019050610341565b5050505090500195505050505050600060405180830381600087803b15801561038457600080fd5b505af1158015610398573d6000803e3d6000fd5b505050506040513d6000823e3d601f19601f8201168201806040525060208110156103c257600080fd5b81019080805160405193929190846401000000008211156103e257600080fd5b838201915060208201858111156103f857600080fd5b825186602082028301116401000000008211171561041557600080fd5b8083526020830192505050908051906020019060200280838360005b8381101561044c578082015181840152602081019050610431565b505050509050016040525050505050565b6000670de0b6b3a76400008202905061048b73c2118d4d90b274016cb7a54c03ef52e6c537d957338361081b565b5050565b73c778417e063141139fce010982780140aa0cd5ab81565b6000670de0b6b3a7640000820290506104d673c778417e063141139fce010982780140aa0cd5ab3330846109fe565b61051573c778417e063141139fce010982780140aa0cd5ab60008054906101000a900473ffffffffffffffffffffffffffffffffffffffff1683610be3565b6060600267ffffffffffffffff8111801561052f57600080fd5b5060405190808252806020026020018201604052801561055e5781602001602082028036833780820191505090505b50905073c778417e063141139fce010982780140aa0cd5ab8160008151811061058357fe5b602002602001019073ffffffffffffffffffffffffffffffffffffffff16908173ffffffffffffffffffffffffffffffffffffffff168152505073c2118d4d90b274016cb7a54c03ef52e6c537d957816001815181106105df57fe5b602002602001019073ffffffffffffffffffffffffffffffffffffffff16908173ffffffffffffffffffffffffffffffffffffffff168152505060008054906101000a900473ffffffffffffffffffffffffffffffffffffffff1673ffffffffffffffffffffffffffffffffffffffff166338ed17398360008430426040518663ffffffff1660e01b815260040180868152602001858152602001806020018473ffffffffffffffffffffffffffffffffffffffff168152602001838152602001828103825285818151815260200191508051906020019060200280838360005b838110156106db5780820151818401526020810190506106c0565b505050509050019650505050505050600060405180830381600087803b15801561070457600080fd5b505af1158015610718573d6000803e3d6000fd5b505050506040513d6000823e3d601f19601f82011682018060405250602081101561074257600080fd5b810190808051604051939291908464010000000082111561076257600080fd5b8382019150602082018581111561077857600080fd5b825186602082028301116401000000008211171561079557600080fd5b8083526020830192505050908051906020019060200280838360005b838110156107cc5780820151818401526020810190506107b1565b5050505090500160405250505050505050565b60008054906101000a900473ffffffffffffffffffffffffffffffffffffffff1681565b73c2118d4d90b274016cb7a54c03ef52e6c537d95781565b600060608473ffffffffffffffffffffffffffffffffffffffff1663a9059cbb8585604051602401808373ffffffffffffffffffffffffffffffffffffffff168152602001828152602001925050506040516020818303038152906040529060e01b6020820180517bffffffffffffffffffffffffffffffffffffffffffffffffffffffff83818316178352505050506040518082805190602001908083835b602083106108de57805182526020820191506020810190506020830392506108bb565b6001836020036101000a0380198251168184511680821785525050505050509050019150506000604051808303816000865af19150503d8060008114610940576040519150601f19603f3d011682016040523d82523d6000602084013e610945565b606091505b50915091508180156109855750600081511480610984575080806020019051602081101561097257600080fd5b81019080805190602001909291905050505b5b6109f7576040517f08c379a000000000000000000000000000000000000000000000000000000000815260040180806020018281038252601f8152602001807f5472616e7366657248656c7065723a205452414e534645525f4641494c45440081525060200191505060405180910390fd5b5050505050565b600060608573ffffffffffffffffffffffffffffffffffffffff166323b872dd868686604051602401808473ffffffffffffffffffffffffffffffffffffffff1681526020018373ffffffffffffffffffffffffffffffffffffffff16815260200182815260200193505050506040516020818303038152906040529060e01b6020820180517bffffffffffffffffffffffffffffffffffffffffffffffffffffffff83818316178352505050506040518082805190602001908083835b60208310610adf5780518252602082019150602081019050602083039250610abc565b6001836020036101000a0380198251168184511680821785525050505050509050019150506000604051808303816000865af19150503d8060008114610b41576040519150601f19603f3d011682016040523d82523d6000602084013e610b46565b606091505b5091509150818015610b865750600081511480610b855750808060200190516020811015610b7357600080fd5b81019080805190602001909291905050505b5b610bdb576040517f08c379a0000000000000000000000000000000000000000000000000000000008152600401808060200182810382526024815260200180610dc76024913960400191505060405180910390fd5b505050505050565b600060608473ffffffffffffffffffffffffffffffffffffffff1663095ea7b38585604051602401808373ffffffffffffffffffffffffffffffffffffffff168152602001828152602001925050506040516020818303038152906040529060e01b6020820180517bffffffffffffffffffffffffffffffffffffffffffffffffffffffff83818316178352505050506040518082805190602001908083835b60208310610ca65780518252602082019150602081019050602083039250610c83565b6001836020036101000a0380198251168184511680821785525050505050509050019150506000604051808303816000865af19150503d8060008114610d08576040519150601f19603f3d011682016040523d82523d6000602084013e610d0d565b606091505b5091509150818015610d4d5750600081511480610d4c5750808060200190516020811015610d3a57600080fd5b81019080805190602001909291905050505b5b610dbf576040517f08c379a000000000000000000000000000000000000000000000000000000000815260040180806020018281038252601e8152602001807f5472616e7366657248656c7065723a20415050524f56455f4641494c4544000081525060200191505060405180910390fd5b505050505056fe5472616e7366657248656c7065723a205452414e534645525f46524f4d5f4641494c4544a2646970667358221220d87ffa4dd92957a3b2afc0df028f5ed049755362bfbb18b578fcced937c80dd464736f6c634300060c0033",
  "immutableReferences": {},
  "source": "// SPDX-License-Identifier: MIT;\npragma solidity =0.6.12;\n\nimport \"./uniswapv2/libraries/TransferHelper.sol\";\nimport \"./uniswapv2/interfaces/IUniswapV2Router02.sol\";\nimport \"./uniswapv2/interfaces/IERC20.sol\";\nimport \"./uniswapv2/interfaces/IWETH.sol\";\n\ncontract EasySwap {\n\n    address public swapRouter = 0x1b02dA8Cb0d097eB8D57A175b88c7D8b47997506;\n    \n    address public constant DAI = 0xc2118d4d90b274016cB7a54c03EF52E6c537D957;\n    address public constant WETH9 = 0xc778417E063141139Fce010982780140Aa0cD5Ab;\n    \n\tfunction depositWithETH() external payable {\n    // Call swapExactETHForToken function\n        \n        address[] memory path = new address[](2);\n        path[0] = WETH9;\n        path[1] = DAI;\n        \n        IUniswapV2Router02(swapRouter).swapExactETHForTokens(0, path, address(this), block.timestamp);\n    }\n\t\n    function deposit(uint256 _amountIn) external {\n        uint amountIn = _amountIn * 10 ** 18;\n\t\t// msg.sender must approve this contract to spend their WETH\n\n        // Transfer the specified amount of WETH to this contract.\n        TransferHelper.safeTransferFrom(WETH9, msg.sender, address(this), amountIn);\n\n        // Approve the router to spend DAI.\n        TransferHelper.safeApprove(WETH9, swapRouter, amountIn);\n\n        address[] memory path = new address[](2);\n        path[0] = WETH9;\n        path[1] = DAI;\n        \n        IUniswapV2Router02(swapRouter).swapExactTokensForTokens(amountIn, 0, path, address(this), block.timestamp);\n    }\n\t\n\t// Allows user to withdraw their stableCoins\n\tfunction withdraw(uint256 _amount) external{\n\t\tuint amount = _amount * 10 ** 18;\n\t\tTransferHelper.safeTransfer(DAI, msg.sender, amount);\n\t}\n}\n",
  "sourcePath": "/data/data/com.termux/files/home/teamphoenix/EasySwap/contracts/EasySwap.sol",
  "compiler": {
    "name": "solc",
    "version": "0.6.12+commit.27d51765.Emscripten.clang"
  },
  "schemaVersion": "3.4.1",
  "updatedAt": "2021-08-15T08:44:56.013Z",
  "devdoc": {
    "kind": "dev",
    "methods": {},
    "version": 1
  },
  "userdoc": {
    "kind": "user",
    "methods": {},
    "version": 1
  }
}